{"abi":[{"type":"constructor","inputs":[{"name":"usdtToken","type":"address","internalType":"address"},{"name":"paymentProcessor","type":"address","internalType":"address"},{"name":"initialOwner","type":"address","internalType":"address"},{"name":"initialBudget","type":"uint256","internalType":"uint256"}],"stateMutability":"nonpayable"},{"type":"receive","stateMutability":"payable"},{"type":"function","name":"ERC8004_INTERFACE_ID","inputs":[],"outputs":[{"name":"","type":"bytes4","internalType":"bytes4"}],"stateMutability":"view"},{"type":"function","name":"PAYMENT_PROCESSOR","inputs":[],"outputs":[{"name":"","type":"address","internalType":"address"}],"stateMutability":"view"},{"type":"function","name":"USDT_TOKEN","inputs":[],"outputs":[{"name":"","type":"address","internalType":"address"}],"stateMutability":"view"},{"type":"function","name":"addPaymentValidator","inputs":[{"name":"validator","type":"address","internalType":"address"}],"outputs":[],"stateMutability":"nonpayable"},{"type":"function","name":"autonomousMode","inputs":[],"outputs":[{"name":"","type":"bool","internalType":"bool"}],"stateMutability":"view"},{"type":"function","name":"dailyBudget","inputs":[],"outputs":[{"name":"","type":"uint256","internalType":"uint256"}],"stateMutability":"view"},{"type":"function","name":"depositUSDT","inputs":[{"name":"amount","type":"uint256","internalType":"uint256"}],"outputs":[],"stateMutability":"nonpayable"},{"type":"function","name":"emergencyPause","inputs":[],"outputs":[],"stateMutability":"nonpayable"},{"type":"function","name":"execute","inputs":[{"name":"target","type":"address","internalType":"address"},{"name":"value","type":"uint256","internalType":"uint256"},{"name":"data","type":"bytes","internalType":"bytes"}],"outputs":[{"name":"success","type":"bool","internalType":"bool"},{"name":"returnData","type":"bytes","internalType":"bytes"}],"stateMutability":"nonpayable"},{"type":"function","name":"getPaymentCount","inputs":[],"outputs":[{"name":"","type":"uint256","internalType":"uint256"}],"stateMutability":"view"},{"type":"function","name":"getPaymentHistory","inputs":[{"name":"offset","type":"uint256","internalType":"uint256"},{"name":"limit","type":"uint256","internalType":"uint256"}],"outputs":[{"name":"","type":"tuple[]","internalType":"struct ArepaAgent.PaymentRecord[]","components":[{"name":"service","type":"address","internalType":"address"},{"name":"amount","type":"uint256","internalType":"uint256"},{"name":"timestamp","type":"uint256","internalType":"uint256"},{"name":"resource","type":"string","internalType":"string"},{"name":"success","type":"bool","internalType":"bool"}]}],"stateMutability":"view"},{"type":"function","name":"getRemainingBudget","inputs":[],"outputs":[{"name":"","type":"uint256","internalType":"uint256"}],"stateMutability":"view"},{"type":"function","name":"getUSDTBalance","inputs":[],"outputs":[{"name":"","type":"uint256","internalType":"uint256"}],"stateMutability":"view"},{"type":"function","name":"isBudgetResetNeeded","inputs":[],"outputs":[{"name":"","type":"bool","internalType":"bool"}],"stateMutability":"view"},{"type":"function","name":"lastResetDay","inputs":[],"outputs":[{"name":"","type":"uint256","internalType":"uint256"}],"stateMutability":"view"},{"type":"function","name":"owner","inputs":[],"outputs":[{"name":"","type":"address","internalType":"address"}],"stateMutability":"view"},{"type":"function","name":"paused","inputs":[],"outputs":[{"name":"","type":"bool","internalType":"bool"}],"stateMutability":"view"},{"type":"function","name":"paymentHistory","inputs":[{"name":"","type":"uint256","internalType":"uint256"}],"outputs":[{"name":"service","type":"address","internalType":"address"},{"name":"amount","type":"uint256","internalType":"uint256"},{"name":"timestamp","type":"uint256","internalType":"uint256"},{"name":"resource","type":"string","internalType":"string"},{"name":"success","type":"bool","internalType":"bool"}],"stateMutability":"view"},{"type":"function","name":"paymentValidators","inputs":[{"name":"","type":"address","internalType":"address"}],"outputs":[{"name":"","type":"bool","internalType":"bool"}],"stateMutability":"view"},{"type":"function","name":"processX402Payment","inputs":[{"name":"service","type":"address","internalType":"address"},{"name":"amount","type":"uint256","internalType":"uint256"},{"name":"resource","type":"string","internalType":"string"},{"name":"signature","type":"bytes","internalType":"bytes"},{"name":"nonce","type":"uint256","internalType":"uint256"}],"outputs":[],"stateMutability":"nonpayable"},{"type":"function","name":"processX402PaymentDirect","inputs":[{"name":"service","type":"address","internalType":"address"},{"name":"amount","type":"uint256","internalType":"uint256"},{"name":"resource","type":"string","internalType":"string"}],"outputs":[],"stateMutability":"nonpayable"},{"type":"function","name":"removePaymentValidator","inputs":[{"name":"validator","type":"address","internalType":"address"}],"outputs":[],"stateMutability":"nonpayable"},{"type":"function","name":"renounceOwnership","inputs":[],"outputs":[],"stateMutability":"nonpayable"},{"type":"function","name":"setAutonomousMode","inputs":[{"name":"enabled","type":"bool","internalType":"bool"}],"outputs":[],"stateMutability":"nonpayable"},{"type":"function","name":"setDailyBudget","inputs":[{"name":"newBudget","type":"uint256","internalType":"uint256"}],"outputs":[],"stateMutability":"nonpayable"},{"type":"function","name":"spentToday","inputs":[],"outputs":[{"name":"","type":"uint256","internalType":"uint256"}],"stateMutability":"view"},{"type":"function","name":"supportsInterface","inputs":[{"name":"interfaceId","type":"bytes4","internalType":"bytes4"}],"outputs":[{"name":"","type":"bool","internalType":"bool"}],"stateMutability":"pure"},{"type":"function","name":"transferOwnership","inputs":[{"name":"newOwner","type":"address","internalType":"address"}],"outputs":[],"stateMutability":"nonpayable"},{"type":"function","name":"unpause","inputs":[],"outputs":[],"stateMutability":"nonpayable"},{"type":"function","name":"usedNonces","inputs":[{"name":"","type":"uint256","internalType":"uint256"}],"outputs":[{"name":"","type":"bool","internalType":"bool"}],"stateMutability":"view"},{"type":"function","name":"withdrawAVAX","inputs":[{"name":"to","type":"address","internalType":"address payable"},{"name":"amount","type":"uint256","internalType":"uint256"}],"outputs":[],"stateMutability":"nonpayable"},{"type":"function","name":"withdrawUSDT","inputs":[{"name":"to","type":"address","internalType":"address"},{"name":"amount","type":"uint256","internalType":"uint256"}],"outputs":[],"stateMutability":"nonpayable"},{"type":"event","name":"AutonomousModeSet","inputs":[{"name":"enabled","type":"bool","indexed":false,"internalType":"bool"}],"anonymous":false},{"type":"event","name":"BudgetUpdated","inputs":[{"name":"newDailyBudget","type":"uint256","indexed":false,"internalType":"uint256"},{"name":"spentToday","type":"uint256","indexed":false,"internalType":"uint256"}],"anonymous":false},{"type":"event","name":"EmergencyPause","inputs":[{"name":"paused","type":"bool","indexed":false,"internalType":"bool"}],"anonymous":false},{"type":"event","name":"LiquidityInjected","inputs":[{"name":"from","type":"address","indexed":true,"internalType":"address"},{"name":"amount","type":"uint256","indexed":false,"internalType":"uint256"}],"anonymous":false},{"type":"event","name":"OwnershipTransferred","inputs":[{"name":"previousOwner","type":"address","indexed":true,"internalType":"address"},{"name":"newOwner","type":"address","indexed":true,"internalType":"address"}],"anonymous":false},{"type":"event","name":"ValidatorUpdated","inputs":[{"name":"validator","type":"address","indexed":true,"internalType":"address"},{"name":"approved","type":"bool","indexed":false,"internalType":"bool"}],"anonymous":false},{"type":"event","name":"X402PaymentExecuted","inputs":[{"name":"service","type":"address","indexed":true,"internalType":"address"},{"name":"amount","type":"uint256","indexed":false,"internalType":"uint256"},{"name":"resource","type":"string","indexed":false,"internalType":"string"},{"name":"paymentHash","type":"bytes32","indexed":true,"internalType":"bytes32"},{"name":"paidBy","type":"address","indexed":true,"internalType":"address"}],"anonymous":false},{"type":"error","name":"ECDSAInvalidSignature","inputs":[]},{"type":"error","name":"ECDSAInvalidSignatureLength","inputs":[{"name":"length","type":"uint256","internalType":"uint256"}]},{"type":"error","name":"ECDSAInvalidSignatureS","inputs":[{"name":"s","type":"bytes32","internalType":"bytes32"}]},{"type":"error","name":"OwnableInvalidOwner","inputs":[{"name":"owner","type":"address","internalType":"address"}]},{"type":"error","name":"OwnableUnauthorizedAccount","inputs":[{"name":"account","type":"address","internalType":"address"}]},{"type":"error","name":"SafeERC20FailedOperation","inputs":[{"name":"token","type":"address","internalType":"address"}]}],"bytecode":{"object":"0x60c060405234801562000010575f80fd5b50604051620041a5380380620041a58339818101604052810190620000369190620003a6565b815f73ffffffffffffffffffffffffffffffffffffffff168173ffffffffffffffffffffffffffffffffffffffff1603620000aa575f6040517f1e4fbdf7000000000000000000000000000000000000000000000000000000008152600401620000a1919062000426565b60405180910390fd5b620000bb816200024860201b60201c565b505f73ffffffffffffffffffffffffffffffffffffffff168473ffffffffffffffffffffffffffffffffffffffff16036200012d576040517f08c379a000000000000000000000000000000000000000000000000000000000815260040162000124906200049f565b60405180910390fd5b5f73ffffffffffffffffffffffffffffffffffffffff168373ffffffffffffffffffffffffffffffffffffffff16036200019e576040517f08c379a000000000000000000000000000000000000000000000000000000000815260040162000195906200050d565b60405180910390fd5b8373ffffffffffffffffffffffffffffffffffffffff1660808173ffffffffffffffffffffffffffffffffffffffff16815250508273ffffffffffffffffffffffffffffffffffffffff1660a08173ffffffffffffffffffffffffffffffffffffffff16815250508060018190555062015180426200021e91906200055a565b600381905550600160045f6101000a81548160ff0219169083151502179055505050505062000591565b5f805f9054906101000a900473ffffffffffffffffffffffffffffffffffffffff169050815f806101000a81548173ffffffffffffffffffffffffffffffffffffffff021916908373ffffffffffffffffffffffffffffffffffffffff1602179055508173ffffffffffffffffffffffffffffffffffffffff168173ffffffffffffffffffffffffffffffffffffffff167f8be0079c531659141344cd1fd0a4f28419497f9722a3daafe3b4186f6b6457e060405160405180910390a35050565b5f80fd5b5f73ffffffffffffffffffffffffffffffffffffffff82169050919050565b5f62000338826200030d565b9050919050565b6200034a816200032c565b811462000355575f80fd5b50565b5f8151905062000368816200033f565b92915050565b5f819050919050565b62000382816200036e565b81146200038d575f80fd5b50565b5f81519050620003a08162000377565b92915050565b5f805f8060808587031215620003c157620003c062000309565b5b5f620003d08782880162000358565b9450506020620003e38782880162000358565b9350506040620003f68782880162000358565b9250506060620004098782880162000390565b91505092959194509250565b62000420816200032c565b82525050565b5f6020820190506200043b5f83018462000415565b92915050565b5f82825260208201905092915050565b7f496e76616c6964205553445400000000000000000000000000000000000000005f82015250565b5f62000487600c8362000441565b9150620004948262000451565b602082019050919050565b5f6020820190508181035f830152620004b88162000479565b9050919050565b7f496e76616c6964205061796d656e7450726f636573736f7200000000000000005f82015250565b5f620004f560188362000441565b91506200050282620004bf565b602082019050919050565b5f6020820190508181035f8301526200052681620004e7565b9050919050565b7f4e487b71000000000000000000000000000000000000000000000000000000005f52601260045260245ffd5b5f62000566826200036e565b915062000573836200036e565b9250826200058657620005856200052d565b5b828204905092915050565b60805160a051613bcf620005d65f395f61161301525f818161080401528181610c710152818161113801528181611438015281816114840152611d000152613bcf5ff3fe6080604052600436106101e6575f3560e01c80639785fac811610101578063e140870b11610094578063f059cf2b11610063578063f059cf2b146106ae578063f2fde38b146106d8578063f6b77c4714610700578063fe060fcd1461072a576101ed565b8063e140870b146105f8578063e7c80f1714610634578063e81702b01461065c578063ec1e5f0714610686576101ed565b8063b1537481116100d0578063b15374811461052f578063b507e48714610557578063b61d27f614610593578063d80a65e4146105d0576101ed565b80639785fac814610471578063a5e047b81461049b578063af2ae425146104db578063af32a03f14610505576101ed565b806350d69dd411610179578063715018a611610148578063715018a6146103dd57806377a15b61146103f357806377b330c91461041d5780638da5cb5b14610447576101ed565b806350d69dd41461033957806351858e27146103615780635c975abb146103775780636717e41c146103a1576101ed565b806315f3e4a9116101b557806315f3e4a9146102a75780631c3474e6146102d15780633f4ba83a146102f95780634eec7da11461030f576101ed565b806301ffc9a7146101f157806309dd7c241461022d5780631259a5c8146102555780631481794e1461027f576101ed565b366101ed57005b5f80fd5b3480156101fc575f80fd5b5061021760048036038101906102129190612613565b610752565b6040516102249190612658565b60405180910390f35b348015610238575f80fd5b50610253600480360381019061024e91906126a4565b6107a2565b005b348015610260575f80fd5b506102696107ef565b60405161027691906126de565b60405180910390f35b34801561028a575f80fd5b506102a560048036038101906102a09190612751565b6107f5565b005b3480156102b2575f80fd5b506102bb61084c565b6040516102c89190612658565b60405180910390f35b3480156102dc575f80fd5b506102f760048036038101906102f29190612845565b610865565b005b348015610304575f80fd5b5061030d610eaf565b005b34801561031a575f80fd5b50610323610f0a565b60405161033091906126de565b60405180910390f35b348015610344575f80fd5b5061035f600480360381019061035a91906128fc565b610f10565b005b34801561036c575f80fd5b5061037561136e565b005b348015610382575f80fd5b5061038b6113cb565b6040516103989190612658565b60405180910390f35b3480156103ac575f80fd5b506103c760048036038101906103c291906126a4565b6113de565b6040516103d49190612658565b60405180910390f35b3480156103e8575f80fd5b506103f16113fb565b005b3480156103fe575f80fd5b5061040761140e565b60405161041491906126de565b60405180910390f35b348015610428575f80fd5b50610431611436565b60405161043e919061297c565b60405180910390f35b348015610452575f80fd5b5061045b61145a565b604051610468919061297c565b60405180910390f35b34801561047c575f80fd5b50610485611481565b60405161049291906126de565b60405180910390f35b3480156104a6575f80fd5b506104c160048036038101906104bc91906126a4565b61151f565b6040516104d2959493929190612a1f565b60405180910390f35b3480156104e6575f80fd5b506104ef611611565b6040516104fc919061297c565b60405180910390f35b348015610510575f80fd5b50610519611635565b60405161052691906126de565b60405180910390f35b34801561053a575f80fd5b5061055560048036038101906105509190612ab2565b611641565b005b348015610562575f80fd5b5061057d60048036038101906105789190612af0565b6116f6565b60405161058a9190612658565b60405180910390f35b34801561059e575f80fd5b506105b960048036038101906105b49190612b1b565b611713565b6040516105c7929190612bde565b60405180910390f35b3480156105db575f80fd5b506105f660048036038101906105f19190612af0565b611953565b005b348015610603575f80fd5b5061061e60048036038101906106199190612c0c565b611a70565b60405161062b9190612ded565b60405180910390f35b34801561063f575f80fd5b5061065a600480360381019061065591906126a4565b611cf8565b005b348015610667575f80fd5b50610670611d96565b60405161067d9190612e1c565b60405180910390f35b348015610691575f80fd5b506106ac60048036038101906106a79190612e5f565b611da1565b005b3480156106b9575f80fd5b506106c2611dfc565b6040516106cf91906126de565b60405180910390f35b3480156106e3575f80fd5b506106fe60048036038101906106f99190612af0565b611e02565b005b34801561070b575f80fd5b50610714611e86565b6040516107219190612658565b60405180910390f35b348015610735575f80fd5b50610750600480360381019061074b9190612af0565b611e98565b005b5f638004800460e01b7bffffffffffffffffffffffffffffffffffffffffffffffffffffffff1916827bffffffffffffffffffffffffffffffffffffffffffffffffffffffff1916149050919050565b6107aa611f45565b806001819055507fcf91367f884794ee3033ec73a082caea4fdeab2c5ff645406bd40c4314eee878816002546040516107e4929190612e8a565b60405180910390a150565b60035481565b6107fd611f45565b61084882827f000000000000000000000000000000000000000000000000000000000000000073ffffffffffffffffffffffffffffffffffffffff16611fcc9092919063ffffffff16565b5050565b5f600354620151804261085f9190612f0b565b11905090565b600460019054906101000a900460ff16156108b5576040517f08c379a00000000000000000000000000000000000000000000000000000000081526004016108ac90612f85565b60405180910390fd5b856108be61201f565b600154816002546108cf9190612fa3565b1115610910576040517f08c379a000000000000000000000000000000000000000000000000000000000815260040161090790613046565b60405180910390fd5b60055f3373ffffffffffffffffffffffffffffffffffffffff1673ffffffffffffffffffffffffffffffffffffffff1681526020019081526020015f205f9054906101000a900460ff1680610997575061096861145a565b73ffffffffffffffffffffffffffffffffffffffff163373ffffffffffffffffffffffffffffffffffffffff16145b6109d6576040517f08c379a00000000000000000000000000000000000000000000000000000000081526004016109cd906130d4565b60405180910390fd5b60065f8381526020019081526020015f205f9054906101000a900460ff1615610a34576040517f08c379a0000000000000000000000000000000000000000000000000000000008152600401610a2b9061313c565b60405180910390fd5b5f73ffffffffffffffffffffffffffffffffffffffff168873ffffffffffffffffffffffffffffffffffffffff1603610aa2576040517f08c379a0000000000000000000000000000000000000000000000000000000008152600401610a99906131a4565b60405180910390fd5b5f8711610ae4576040517f08c379a0000000000000000000000000000000000000000000000000000000008152600401610adb9061320c565b60405180910390fd5b600160065f8481526020019081526020015f205f6101000a81548160ff0219169083151502179055505f8888888886604051602001610b279594939291906132cb565b6040516020818303038152906040528051906020012090505f610b4982612088565b90505f610ba287878080601f0160208091040260200160405190810160405280939291908181526020018383808284375f81840152601f19601f82011690508083019250505050505050836120bb90919063ffffffff16565b905060055f8273ffffffffffffffffffffffffffffffffffffffff1673ffffffffffffffffffffffffffffffffffffffff1681526020019081526020015f205f9054906101000a900460ff1680610c2b5750610bfc61145a565b73ffffffffffffffffffffffffffffffffffffffff168173ffffffffffffffffffffffffffffffffffffffff16145b610c6a576040517f08c379a0000000000000000000000000000000000000000000000000000000008152600401610c6190613360565b60405180910390fd5b610cb58b8b7f000000000000000000000000000000000000000000000000000000000000000073ffffffffffffffffffffffffffffffffffffffff16611fcc9092919063ffffffff16565b8960025f828254610cc69190612fa3565b925050819055505f8b8b8742604051602001610ce5949392919061337e565b60405160208183030381529060405280519060200120905060076040518060a001604052808e73ffffffffffffffffffffffffffffffffffffffff1681526020018d81526020014281526020018c8c8080601f0160208091040260200160405190810160405280939291908181526020018383808284375f81840152601f19601f82011690508083019250505050505050815260200160011515815250908060018154018082558091505060019003905f5260205f2090600502015f909190919091505f820151815f015f6101000a81548173ffffffffffffffffffffffffffffffffffffffff021916908373ffffffffffffffffffffffffffffffffffffffff16021790555060208201518160010155604082015181600201556060820151816003019081610e1591906135f2565b506080820151816004015f6101000a81548160ff02191690831515021790555050503373ffffffffffffffffffffffffffffffffffffffff16818d73ffffffffffffffffffffffffffffffffffffffff167f90990d1889b22b94c9d5bf3c06f362dfc71f97275a6dec14c8618356dccf81538e8e8e604051610e99939291906136ed565b60405180910390a4505050505050505050505050565b610eb7611f45565b5f600460016101000a81548160ff0219169083151502179055507fb80d1ae5628c2af91424c54c87acfd15016be4bebeef0425b328238702f348315f604051610f009190612658565b60405180910390a1565b60015481565b600460019054906101000a900460ff1615610f60576040517f08c379a0000000000000000000000000000000000000000000000000000000008152600401610f5790612f85565b60405180910390fd5b82610f6961201f565b60015481600254610f7a9190612fa3565b1115610fbb576040517f08c379a0000000000000000000000000000000000000000000000000000000008152600401610fb290613046565b60405180910390fd5b60055f3373ffffffffffffffffffffffffffffffffffffffff1673ffffffffffffffffffffffffffffffffffffffff1681526020019081526020015f205f9054906101000a900460ff1680611042575061101361145a565b73ffffffffffffffffffffffffffffffffffffffff163373ffffffffffffffffffffffffffffffffffffffff16145b611081576040517f08c379a0000000000000000000000000000000000000000000000000000000008152600401611078906130d4565b60405180910390fd5b5f73ffffffffffffffffffffffffffffffffffffffff168573ffffffffffffffffffffffffffffffffffffffff16036110ef576040517f08c379a00000000000000000000000000000000000000000000000000000000081526004016110e690613767565b60405180910390fd5b5f8411611131576040517f08c379a00000000000000000000000000000000000000000000000000000000081526004016111289061320c565b60405180910390fd5b61117c85857f000000000000000000000000000000000000000000000000000000000000000073ffffffffffffffffffffffffffffffffffffffff16611fcc9092919063ffffffff16565b8360025f82825461118d9190612fa3565b925050819055505f8585426040516020016111aa93929190613785565b60405160208183030381529060405280519060200120905060076040518060a001604052808873ffffffffffffffffffffffffffffffffffffffff16815260200187815260200142815260200186868080601f0160208091040260200160405190810160405280939291908181526020018383808284375f81840152601f19601f82011690508083019250505050505050815260200160011515815250908060018154018082558091505060019003905f5260205f2090600502015f909190919091505f820151815f015f6101000a81548173ffffffffffffffffffffffffffffffffffffffff021916908373ffffffffffffffffffffffffffffffffffffffff160217905550602082015181600101556040820151816002015560608201518160030190816112da91906135f2565b506080820151816004015f6101000a81548160ff02191690831515021790555050503373ffffffffffffffffffffffffffffffffffffffff16818773ffffffffffffffffffffffffffffffffffffffff167f90990d1889b22b94c9d5bf3c06f362dfc71f97275a6dec14c8618356dccf815388888860405161135e939291906136ed565b60405180910390a4505050505050565b611376611f45565b6001600460016101000a81548160ff0219169083151502179055507fb80d1ae5628c2af91424c54c87acfd15016be4bebeef0425b328238702f3483160016040516113c19190612658565b60405180910390a1565b600460019054906101000a900460ff1681565b6006602052805f5260405f205f915054906101000a900460ff1681565b611403611f45565b61140c5f6120e5565b565b5f60025460015411611420575f611431565b60025460015461143091906137c1565b5b905090565b7f000000000000000000000000000000000000000000000000000000000000000081565b5f805f9054906101000a900473ffffffffffffffffffffffffffffffffffffffff16905090565b5f7f000000000000000000000000000000000000000000000000000000000000000073ffffffffffffffffffffffffffffffffffffffff166370a08231306040518263ffffffff1660e01b81526004016114db919061297c565b602060405180830381865afa1580156114f6573d5f803e3d5ffd5b505050506040513d601f19601f8201168201806040525081019061151a9190613808565b905090565b6007818154811061152e575f80fd5b905f5260205f2090600502015f91509050805f015f9054906101000a900473ffffffffffffffffffffffffffffffffffffffff169080600101549080600201549080600301805461157e90613425565b80601f01602080910402602001604051908101604052809291908181526020018280546115aa90613425565b80156115f55780601f106115cc576101008083540402835291602001916115f5565b820191905f5260205f20905b8154815290600101906020018083116115d857829003601f168201915b505050505090806004015f9054906101000a900460ff16905085565b7f000000000000000000000000000000000000000000000000000000000000000081565b5f600780549050905090565b611649611f45565b5f8273ffffffffffffffffffffffffffffffffffffffff168260405161166e90613860565b5f6040518083038185875af1925050503d805f81146116a8576040519150601f19603f3d011682016040523d82523d5f602084013e6116ad565b606091505b50509050806116f1576040517f08c379a00000000000000000000000000000000000000000000000000000000081526004016116e8906138be565b60405180910390fd5b505050565b6005602052805f5260405f205f915054906101000a900460ff1681565b5f6060600460019054906101000a900460ff1615611766576040517f08c379a000000000000000000000000000000000000000000000000000000000815260040161175d90612f85565b60405180910390fd5b60055f3373ffffffffffffffffffffffffffffffffffffffff1673ffffffffffffffffffffffffffffffffffffffff1681526020019081526020015f205f9054906101000a900460ff16806117ed57506117be61145a565b73ffffffffffffffffffffffffffffffffffffffff163373ffffffffffffffffffffffffffffffffffffffff16145b61182c576040517f08c379a0000000000000000000000000000000000000000000000000000000008152600401611823906130d4565b60405180910390fd5b5f73ffffffffffffffffffffffffffffffffffffffff168673ffffffffffffffffffffffffffffffffffffffff160361189a576040517f08c379a000000000000000000000000000000000000000000000000000000000815260040161189190613926565b60405180910390fd5b8573ffffffffffffffffffffffffffffffffffffffff168585856040516118c2929190613968565b5f6040518083038185875af1925050503d805f81146118fc576040519150601f19603f3d011682016040523d82523d5f602084013e611901565b606091505b5080925081935050508161194a576040517f08c379a0000000000000000000000000000000000000000000000000000000008152600401611941906139ca565b60405180910390fd5b94509492505050565b61195b611f45565b5f73ffffffffffffffffffffffffffffffffffffffff168173ffffffffffffffffffffffffffffffffffffffff16036119c9576040517f08c379a00000000000000000000000000000000000000000000000000000000081526004016119c090613a32565b60405180910390fd5b600160055f8373ffffffffffffffffffffffffffffffffffffffff1673ffffffffffffffffffffffffffffffffffffffff1681526020019081526020015f205f6101000a81548160ff0219169083151502179055508073ffffffffffffffffffffffffffffffffffffffff167f763b63b30e91c843bb39e4379603697003d3b7c1f192619cd782fa33bdc443966001604051611a659190612658565b60405180910390a250565b60605f6007805490509050808410611ade575f67ffffffffffffffff811115611a9c57611a9b6133cb565b5b604051908082528060200260200182016040528015611ad557816020015b611ac2612573565b815260200190600190039081611aba5790505b50915050611cf2565b5f818486611aec9190612fa3565b11611b02578385611afd9190612fa3565b611b04565b815b90505f8582611b1391906137c1565b90505f8167ffffffffffffffff811115611b3057611b2f6133cb565b5b604051908082528060200260200182016040528015611b6957816020015b611b56612573565b815260200190600190039081611b4e5790505b5090505f5b82811015611ce95760078189611b849190612fa3565b81548110611b9557611b94613a50565b5b905f5260205f2090600502016040518060a00160405290815f82015f9054906101000a900473ffffffffffffffffffffffffffffffffffffffff1673ffffffffffffffffffffffffffffffffffffffff1673ffffffffffffffffffffffffffffffffffffffff1681526020016001820154815260200160028201548152602001600382018054611c2490613425565b80601f0160208091040260200160405190810160405280929190818152602001828054611c5090613425565b8015611c9b5780601f10611c7257610100808354040283529160200191611c9b565b820191905f5260205f20905b815481529060010190602001808311611c7e57829003601f168201915b50505050508152602001600482015f9054906101000a900460ff161515151581525050828281518110611cd157611cd0613a50565b5b60200260200101819052508080600101915050611b6e565b50809450505050505b92915050565b611d453330837f000000000000000000000000000000000000000000000000000000000000000073ffffffffffffffffffffffffffffffffffffffff166121a6909392919063ffffffff16565b3373ffffffffffffffffffffffffffffffffffffffff167fe1b290359364fe09426676c100b5f9585714a7073e966af34d1db01607ef122c82604051611d8b91906126de565b60405180910390a250565b638004800460e01b81565b611da9611f45565b8060045f6101000a81548160ff0219169083151502179055507f879ea83ba7a9b3e72eb50b232fb90447f32707e9f35ea66a26cd23965aa34b6681604051611df19190612658565b60405180910390a150565b60025481565b611e0a611f45565b5f73ffffffffffffffffffffffffffffffffffffffff168173ffffffffffffffffffffffffffffffffffffffff1603611e7a575f6040517f1e4fbdf7000000000000000000000000000000000000000000000000000000008152600401611e71919061297c565b60405180910390fd5b611e83816120e5565b50565b60045f9054906101000a900460ff1681565b611ea0611f45565b5f60055f8373ffffffffffffffffffffffffffffffffffffffff1673ffffffffffffffffffffffffffffffffffffffff1681526020019081526020015f205f6101000a81548160ff0219169083151502179055508073ffffffffffffffffffffffffffffffffffffffff167f763b63b30e91c843bb39e4379603697003d3b7c1f192619cd782fa33bdc443965f604051611f3a9190612658565b60405180910390a250565b611f4d6121fb565b73ffffffffffffffffffffffffffffffffffffffff16611f6b61145a565b73ffffffffffffffffffffffffffffffffffffffff1614611fca57611f8e6121fb565b6040517f118cdaa7000000000000000000000000000000000000000000000000000000008152600401611fc1919061297c565b60405180910390fd5b565b611fd98383836001612202565b61201a57826040517f5274afe7000000000000000000000000000000000000000000000000000000008152600401612011919061297c565b60405180910390fd5b505050565b5f620151804261202f9190612f0b565b9050600354811115612085575f600281905550806003819055507fcf91367f884794ee3033ec73a082caea4fdeab2c5ff645406bd40c4314eee8786001545f60405161207c929190613ab6565b60405180910390a15b50565b5f7f19457468657265756d205369676e6564204d6573736167653a0a3332000000005f5281601c52603c5f209050919050565b5f805f806120c98686612264565b9250925092506120d982826122b9565b82935050505092915050565b5f805f9054906101000a900473ffffffffffffffffffffffffffffffffffffffff169050815f806101000a81548173ffffffffffffffffffffffffffffffffffffffff021916908373ffffffffffffffffffffffffffffffffffffffff1602179055508173ffffffffffffffffffffffffffffffffffffffff168173ffffffffffffffffffffffffffffffffffffffff167f8be0079c531659141344cd1fd0a4f28419497f9722a3daafe3b4186f6b6457e060405160405180910390a35050565b6121b484848484600161241b565b6121f557836040517f5274afe70000000000000000000000000000000000000000000000000000000081526004016121ec919061297c565b60405180910390fd5b50505050565b5f33905090565b5f8063a9059cbb60e01b9050604051815f525f1960601c86166004528460245260205f60445f808b5af1925060015f5114831661225657838315161561224a573d5f823e3d81fd5b5f873b113d1516831692505b806040525050949350505050565b5f805f60418451036122a4575f805f602087015192506040870151915060608701515f1a90506122968882858561248c565b9550955095505050506122b2565b5f600285515f1b9250925092505b9250925092565b5f60038111156122cc576122cb613add565b5b8260038111156122df576122de613add565b5b031561241757600160038111156122f9576122f8613add565b5b82600381111561230c5761230b613add565b5b03612343576040517ff645eedf00000000000000000000000000000000000000000000000000000000815260040160405180910390fd5b6002600381111561235757612356613add565b5b82600381111561236a57612369613add565b5b036123ae57805f1c6040517ffce698f70000000000000000000000000000000000000000000000000000000081526004016123a591906126de565b60405180910390fd5b6003808111156123c1576123c0613add565b5b8260038111156123d4576123d3613add565b5b0361241657806040517fd78bce0c00000000000000000000000000000000000000000000000000000000815260040161240d9190613b22565b60405180910390fd5b5b5050565b5f806323b872dd60e01b9050604051815f525f1960601c87166004525f1960601c86166024528460445260205f60645f808c5af1925060015f5114831661247957838315161561246d573d5f823e3d81fd5b5f883b113d1516831692505b806040525f606052505095945050505050565b5f805f7f7fffffffffffffffffffffffffffffff5d576e7357a4501ddfe92f46681b20a0845f1c11156124c8575f600385925092509250612569565b5f6001888888886040515f81526020016040526040516124eb9493929190613b56565b6020604051602081039080840390855afa15801561250b573d5f803e3d5ffd5b5050506020604051035190505f73ffffffffffffffffffffffffffffffffffffffff168173ffffffffffffffffffffffffffffffffffffffff160361255c575f60015f801b93509350935050612569565b805f805f1b935093509350505b9450945094915050565b6040518060a001604052805f73ffffffffffffffffffffffffffffffffffffffff1681526020015f81526020015f8152602001606081526020015f151581525090565b5f80fd5b5f80fd5b5f7fffffffff0000000000000000000000000000000000000000000000000000000082169050919050565b6125f2816125be565b81146125fc575f80fd5b50565b5f8135905061260d816125e9565b92915050565b5f60208284031215612628576126276125b6565b5b5f612635848285016125ff565b91505092915050565b5f8115159050919050565b6126528161263e565b82525050565b5f60208201905061266b5f830184612649565b92915050565b5f819050919050565b61268381612671565b811461268d575f80fd5b50565b5f8135905061269e8161267a565b92915050565b5f602082840312156126b9576126b86125b6565b5b5f6126c684828501612690565b91505092915050565b6126d881612671565b82525050565b5f6020820190506126f15f8301846126cf565b92915050565b5f73ffffffffffffffffffffffffffffffffffffffff82169050919050565b5f612720826126f7565b9050919050565b61273081612716565b811461273a575f80fd5b50565b5f8135905061274b81612727565b92915050565b5f8060408385031215612767576127666125b6565b5b5f6127748582860161273d565b925050602061278585828601612690565b9150509250929050565b5f80fd5b5f80fd5b5f80fd5b5f8083601f8401126127b0576127af61278f565b5b8235905067ffffffffffffffff8111156127cd576127cc612793565b5b6020830191508360018202830111156127e9576127e8612797565b5b9250929050565b5f8083601f8401126128055761280461278f565b5b8235905067ffffffffffffffff81111561282257612821612793565b5b60208301915083600182028301111561283e5761283d612797565b5b9250929050565b5f805f805f805f60a0888a0312156128605761285f6125b6565b5b5f61286d8a828b0161273d565b975050602061287e8a828b01612690565b965050604088013567ffffffffffffffff81111561289f5761289e6125ba565b5b6128ab8a828b0161279b565b9550955050606088013567ffffffffffffffff8111156128ce576128cd6125ba565b5b6128da8a828b016127f0565b935093505060806128ed8a828b01612690565b91505092959891949750929550565b5f805f8060608587031215612914576129136125b6565b5b5f6129218782880161273d565b945050602061293287828801612690565b935050604085013567ffffffffffffffff811115612953576129526125ba565b5b61295f8782880161279b565b925092505092959194509250565b61297681612716565b82525050565b5f60208201905061298f5f83018461296d565b92915050565b5f81519050919050565b5f82825260208201905092915050565b5f5b838110156129cc5780820151818401526020810190506129b1565b5f8484015250505050565b5f601f19601f8301169050919050565b5f6129f182612995565b6129fb818561299f565b9350612a0b8185602086016129af565b612a14816129d7565b840191505092915050565b5f60a082019050612a325f83018861296d565b612a3f60208301876126cf565b612a4c60408301866126cf565b8181036060830152612a5e81856129e7565b9050612a6d6080830184612649565b9695505050505050565b5f612a81826126f7565b9050919050565b612a9181612a77565b8114612a9b575f80fd5b50565b5f81359050612aac81612a88565b92915050565b5f8060408385031215612ac857612ac76125b6565b5b5f612ad585828601612a9e565b9250506020612ae685828601612690565b9150509250929050565b5f60208284031215612b0557612b046125b6565b5b5f612b128482850161273d565b91505092915050565b5f805f8060608587031215612b3357612b326125b6565b5b5f612b408782880161273d565b9450506020612b5187828801612690565b935050604085013567ffffffffffffffff811115612b7257612b716125ba565b5b612b7e878288016127f0565b925092505092959194509250565b5f81519050919050565b5f82825260208201905092915050565b5f612bb082612b8c565b612bba8185612b96565b9350612bca8185602086016129af565b612bd3816129d7565b840191505092915050565b5f604082019050612bf15f830185612649565b8181036020830152612c038184612ba6565b90509392505050565b5f8060408385031215612c2257612c216125b6565b5b5f612c2f85828601612690565b9250506020612c4085828601612690565b9150509250929050565b5f81519050919050565b5f82825260208201905092915050565b5f819050602082019050919050565b612c7c81612716565b82525050565b612c8b81612671565b82525050565b5f82825260208201905092915050565b5f612cab82612995565b612cb58185612c91565b9350612cc58185602086016129af565b612cce816129d7565b840191505092915050565b612ce28161263e565b82525050565b5f60a083015f830151612cfd5f860182612c73565b506020830151612d106020860182612c82565b506040830151612d236040860182612c82565b5060608301518482036060860152612d3b8282612ca1565b9150506080830151612d506080860182612cd9565b508091505092915050565b5f612d668383612ce8565b905092915050565b5f602082019050919050565b5f612d8482612c4a565b612d8e8185612c54565b935083602082028501612da085612c64565b805f5b85811015612ddb5784840389528151612dbc8582612d5b565b9450612dc783612d6e565b925060208a01995050600181019050612da3565b50829750879550505050505092915050565b5f6020820190508181035f830152612e058184612d7a565b905092915050565b612e16816125be565b82525050565b5f602082019050612e2f5f830184612e0d565b92915050565b612e3e8161263e565b8114612e48575f80fd5b50565b5f81359050612e5981612e35565b92915050565b5f60208284031215612e7457612e736125b6565b5b5f612e8184828501612e4b565b91505092915050565b5f604082019050612e9d5f8301856126cf565b612eaa60208301846126cf565b9392505050565b7f4e487b71000000000000000000000000000000000000000000000000000000005f52601260045260245ffd5b7f4e487b71000000000000000000000000000000000000000000000000000000005f52601160045260245ffd5b5f612f1582612671565b9150612f2083612671565b925082612f3057612f2f612eb1565b5b828204905092915050565b7f41726570614167656e743a2070617573656400000000000000000000000000005f82015250565b5f612f6f60128361299f565b9150612f7a82612f3b565b602082019050919050565b5f6020820190508181035f830152612f9c81612f63565b9050919050565b5f612fad82612671565b9150612fb883612671565b9250828201905080821115612fd057612fcf612ede565b5b92915050565b7f41726570614167656e743a206461696c792062756467657420657863656564655f8201527f6400000000000000000000000000000000000000000000000000000000000000602082015250565b5f61303060218361299f565b915061303b82612fd6565b604082019050919050565b5f6020820190508181035f83015261305d81613024565b9050919050565b7f41726570614167656e743a206e6f7420617574686f72697a65642076616c69645f8201527f61746f7200000000000000000000000000000000000000000000000000000000602082015250565b5f6130be60248361299f565b91506130c982613064565b604082019050919050565b5f6020820190508181035f8301526130eb816130b2565b9050919050565b7f41726570614167656e743a206e6f6e636520616c7265616479207573656400005f82015250565b5f613126601e8361299f565b9150613131826130f2565b602082019050919050565b5f6020820190508181035f8301526131538161311a565b9050919050565b7f496e76616c6964207365727669636520616464726573730000000000000000005f82015250565b5f61318e60178361299f565b91506131998261315a565b602082019050919050565b5f6020820190508181035f8301526131bb81613182565b9050919050565b7f416d6f756e74206d757374206265203e203000000000000000000000000000005f82015250565b5f6131f660128361299f565b9150613201826131c2565b602082019050919050565b5f6020820190508181035f830152613223816131ea565b9050919050565b5f8160601b9050919050565b5f6132408261322a565b9050919050565b5f61325182613236565b9050919050565b61326961326482612716565b613247565b82525050565b5f819050919050565b61328961328482612671565b61326f565b82525050565b5f81905092915050565b828183375f83830152505050565b5f6132b2838561328f565b93506132bf838584613299565b82840190509392505050565b5f6132d68288613258565b6014820191506132e68287613278565b6020820191506132f78285876132a7565b91506133038284613278565b6020820191508190509695505050505050565b7f41726570614167656e743a20696e76616c6964207369676e61747572650000005f82015250565b5f61334a601d8361299f565b915061335582613316565b602082019050919050565b5f6020820190508181035f8301526133778161333e565b9050919050565b5f6133898287613258565b6014820191506133998286613278565b6020820191506133a98285613278565b6020820191506133b98284613278565b60208201915081905095945050505050565b7f4e487b71000000000000000000000000000000000000000000000000000000005f52604160045260245ffd5b7f4e487b71000000000000000000000000000000000000000000000000000000005f52602260045260245ffd5b5f600282049050600182168061343c57607f821691505b60208210810361344f5761344e6133f8565b5b50919050565b5f819050815f5260205f209050919050565b5f6020601f8301049050919050565b5f82821b905092915050565b5f600883026134b17fffffffffffffffffffffffffffffffffffffffffffffffffffffffffffffffff82613476565b6134bb8683613476565b95508019841693508086168417925050509392505050565b5f819050919050565b5f6134f66134f16134ec84612671565b6134d3565b612671565b9050919050565b5f819050919050565b61350f836134dc565b61352361351b826134fd565b848454613482565b825550505050565b5f90565b61353761352b565b613542818484613506565b505050565b5b818110156135655761355a5f8261352f565b600181019050613548565b5050565b601f8211156135aa5761357b81613455565b61358484613467565b81016020851015613593578190505b6135a761359f85613467565b830182613547565b50505b505050565b5f82821c905092915050565b5f6135ca5f19846008026135af565b1980831691505092915050565b5f6135e283836135bb565b9150826002028217905092915050565b6135fb82612995565b67ffffffffffffffff811115613614576136136133cb565b5b61361e8254613425565b613629828285613569565b5f60209050601f83116001811461365a575f8415613648578287015190505b61365285826135d7565b8655506136b9565b601f19841661366886613455565b5f5b8281101561368f5784890151825560018201915060208501945060208101905061366a565b868310156136ac57848901516136a8601f8916826135bb565b8355505b6001600288020188555050505b505050505050565b5f6136cc838561299f565b93506136d9838584613299565b6136e2836129d7565b840190509392505050565b5f6040820190506137005f8301866126cf565b81810360208301526137138184866136c1565b9050949350505050565b7f496e76616c6964207365727669636500000000000000000000000000000000005f82015250565b5f613751600f8361299f565b915061375c8261371d565b602082019050919050565b5f6020820190508181035f83015261377e81613745565b9050919050565b5f6137908286613258565b6014820191506137a08285613278565b6020820191506137b08284613278565b602082019150819050949350505050565b5f6137cb82612671565b91506137d683612671565b92508282039050818111156137ee576137ed612ede565b5b92915050565b5f815190506138028161267a565b92915050565b5f6020828403121561381d5761381c6125b6565b5b5f61382a848285016137f4565b91505092915050565b5f81905092915050565b50565b5f61384b5f83613833565b91506138568261383d565b5f82019050919050565b5f61386a82613840565b9150819050919050565b7f41564158207472616e73666572206661696c65640000000000000000000000005f82015250565b5f6138a860148361299f565b91506138b382613874565b602082019050919050565b5f6020820190508181035f8301526138d58161389c565b9050919050565b7f496e76616c6964207461726765740000000000000000000000000000000000005f82015250565b5f613910600e8361299f565b915061391b826138dc565b602082019050919050565b5f6020820190508181035f83015261393d81613904565b9050919050565b5f61394f8385613833565b935061395c838584613299565b82840190509392505050565b5f613974828486613944565b91508190509392505050565b7f41726570614167656e743a20657865637574696f6e206661696c6564000000005f82015250565b5f6139b4601c8361299f565b91506139bf82613980565b602082019050919050565b5f6020820190508181035f8301526139e1816139a8565b9050919050565b7f496e76616c6964206164647265737300000000000000000000000000000000005f82015250565b5f613a1c600f8361299f565b9150613a27826139e8565b602082019050919050565b5f6020820190508181035f830152613a4981613a10565b9050919050565b7f4e487b71000000000000000000000000000000000000000000000000000000005f52603260045260245ffd5b5f819050919050565b5f613aa0613a9b613a9684613a7d565b6134d3565b612671565b9050919050565b613ab081613a86565b82525050565b5f604082019050613ac95f8301856126cf565b613ad66020830184613aa7565b9392505050565b7f4e487b71000000000000000000000000000000000000000000000000000000005f52602160045260245ffd5b5f819050919050565b613b1c81613b0a565b82525050565b5f602082019050613b355f830184613b13565b92915050565b5f60ff82169050919050565b613b5081613b3b565b82525050565b5f608082019050613b695f830187613b13565b613b766020830186613b47565b613b836040830185613b13565b613b906060830184613b13565b9594505050505056fea264697066735822122075a350ece1820c6cd1193db824574eb97282c62bbe4b203510454b5e7d4fd9fb64736f6c63430008180033","linkReferences":{}},"methodIdentifiers":{"ERC8004_INTERFACE_ID()":"e81702b0","PAYMENT_PROCESSOR()":"af2ae425","USDT_TOKEN()":"77b330c9","addPaymentValidator(address)":"d80a65e4","autonomousMode()":"f6b77c47","dailyBudget()":"4eec7da1","depositUSDT(uint256)":"e7c80f17","emergencyPause()":"51858e27","execute(address,uint256,bytes)":"b61d27f6","getPaymentCount()":"af32a03f","getPaymentHistory(uint256,uint256)":"e140870b","getRemainingBudget()":"77a15b61","getUSDTBalance()":"9785fac8","isBudgetResetNeeded()":"15f3e4a9","lastResetDay()":"1259a5c8","owner()":"8da5cb5b","paused()":"5c975abb","paymentHistory(uint256)":"a5e047b8","paymentValidators(address)":"b507e487","processX402Payment(address,uint256,string,bytes,uint256)":"1c3474e6","processX402PaymentDirect(address,uint256,string)":"50d69dd4","removePaymentValidator(address)":"fe060fcd","renounceOwnership()":"715018a6","setAutonomousMode(bool)":"ec1e5f07","setDailyBudget(uint256)":"09dd7c24","spentToday()":"f059cf2b","supportsInterface(bytes4)":"01ffc9a7","transferOwnership(address)":"f2fde38b","unpause()":"3f4ba83a","usedNonces(uint256)":"6717e41c","withdrawAVAX(address,uint256)":"b1537481","withdrawUSDT(address,uint256)":"1481794e"},"id":32}